:020000020000FC
:1000000000C048E04EBF4FEF4DBF2198299A209A7B
:10001000229A28982A989AE00E9440009A95E1F73F
:1000200028981999F8CF0E94490096E0A4E0289AF0
:100030000E944000AA95E1F728980E9440009A95F6
:10004000E1F71999F2CF0E94490093E0A7E0289ABE
:100050000E944000AA95E1F728980E9440009A95D6
:10006000E1F71999F2CF0E9449009AE0289A0E947C
:1000700040009A95E1F71999F8CF0E944900CBCF3B
:1000800046E034ED000000003A95E1F74A95C9F7E3
:1000900008952A9860E15AEF4AEF000000004A955F
:0E00A000E1F75A95C9F76A95B1F72A9A0895C3
:00000001FF
