:020000020000FC
:0C0000000C9400010C940A030C940803FB
:02002C00FBC215
:1002000008E00EBF0FEF0DBF00EF0AB902950BB962
:1002100004B9002706BD04BD00938000009381004F
:100220000AE00093690002E00DBB78942A980E94CE
:100230007E0243E30E945D020E947E0242E30E942E
:100240005D020E947E0248E20E945D020E947E02E0
:100250004EE00E945D020E947E0240E40E945D0228
:100260000E947E024EE00E945F020E947E024DE0EC
:100270000E945F020E947E024EE00E945F020E9486
:100280007E0246E00E945F020E947E024EE10E94D2
:100290005F020E947E024EE10E945F020E947E0287
:1002A0004CE00E945F020E947E0248E40E945D02D0
:1002B0000E947E024EE00E945F020E947E024EE09B
:1002C0000E945F020E947E024EE00E945F020E9436
:1002D0007E024EE00E945F020E947E024EE00E947B
:1002E0005F020E947E024FE10E945F020E947E0236
:1002F0004FE10E945F020E947E0241E50E945D0282
:100300000E947E024FE10E945F020E947E024FE146
:100310000E945F020E947E024EE00E945F020E94E5
:100320007E024EE00E945F020E947E024EE00E942A
:100330005F020E947E024EE00E945F020E947E02E7
:100340004EE00E945F020E947E0241E00E945D0238
:100350000E947E0246E00E945D020E947E02F6E05C
:10036000ECE80E94A10240EC0E945D020E947E0225
:10037000F6E0E8E90E94A102F0E0E0E50E948602D2
:100380000E9495024063409303010E9495024063DE
:10039000409302010E949502406340930001409106
:1003A00000010E945F02409102010E945F024091A1
:1003B00003010E945F0288278823F1F3882711E058
:1003C0001DBB41E00E945D020E947E0246E00E9449
:1003D0005D020E947E022227332755E0BB27AA2711
:1003E000DD27CC270027009385000093840002E0DE
:1003F00000936F00F4EFE4E2F0938900E09388004B
:1004000040EC0E945D020E947E0240E00E945F027A
:100410000E947E020CE00093810001E005BD88236C
:10042000F1F302E00DBB00270093810000936F0001
:10043000622F0E9495024063409303010E9495023F
:100440004063409302010E94950240634093000183
:1004500041E00E945D020E947E0246E00E945D0231
:10046000F6E0E4EA0E94A10240EC0E945D020E94D4
:100470007E02F6E0EEEA0E94A102409100010E9495
:100480005F02409102010E945F02409103010E94BD
:100490005F02F0E0E0E50E9486028827621718F00C
:1004A000262F0E948D028823F1F34FCF06B50170ED
:1004B00011F4C16001C0A1600895289802C0289A73
:1004C00000C00E94670242950E9467020895142F9F
:1004D000107F1F601BB929982A9A0E9473022A98DC
:1004E0000E94760208950000000008951F9318E707
:1004F0000E9473021A95E1F71F9108951F9314E16A
:100500000E9476021A95E1F71F910895F999FECF9E
:10051000F2BDE1BDF89A20B50895F999FECFF2BD7C
:10052000E1BD20BDFA9AF99A089540E00AE04395AA
:10053000201BE8F74A95200F542F422F252F5527CF
:1005400008954591403019F00E945F02FACF089556
:100550001F9340E80E945D020E947E0208E088949A
:10056000332351F040E80E945D0240E00E945F02A8
:100570000E947602BB1F0A95BB1F20F040E20E943A
:100580005F0203C042E00E945F020A95A9F7BB1F09
:1005900008E08894AA1F20F040E20E945F0203C096
:1005A00042E00E945F020A95A9F7AA1F1F910895D1
:1005B0001F9340EC0E945D020E947E0208E0889436
:1005C000332341F440EC0E945D0240E00E945F0250
:1005D000DD1F0A95DD1F20F040E20E945F0203C08C
:1005E00041E00E945F020A95A9F7DD1F08E08894A8
:1005F000CC1F20F040E20E945F0203C041E00E9455
:100600005F020E9476020A9599F7CC1F1F91089508
:100610008395189561E036270E94A8020E94D802AF
:10062000882718955A958894AA1FBB1F8894CC1FB9
:10063000DD1F5523D1F423950E945602332311F474
:100640005C2F01C05A2F5F705360E157F2400027C2
:1006500000938100F0938900E09388000093850067
:10066000009384000CE0009381000B2F1D2F332397
:1006700019F0007829F002C0107811F083951895D0
:100680000E94A8020E94D80288271895534C4F5008
:100690005059204249524200484947482053434F4D
:1006A00052453A0047414D45204F56455200594F5B
:0A06B00055522053434F52453A00C3
:00000001FF
